{
  "contractName": "REALPrivateSale",
  "abi": [
    {
      "inputs": [],
      "stateMutability": "nonpayable",
      "type": "constructor"
    },
    {
      "anonymous": false,
      "inputs": [
        {
          "indexed": true,
          "internalType": "address",
          "name": "account",
          "type": "address"
        },
        {
          "indexed": false,
          "internalType": "uint256",
          "name": "amount",
          "type": "uint256"
        },
        {
          "indexed": false,
          "internalType": "uint256",
          "name": "time",
          "type": "uint256"
        }
      ],
      "name": "Claim",
      "type": "event"
    },
    {
      "anonymous": false,
      "inputs": [
        {
          "indexed": true,
          "internalType": "address",
          "name": "previousOwner",
          "type": "address"
        },
        {
          "indexed": true,
          "internalType": "address",
          "name": "newOwner",
          "type": "address"
        }
      ],
      "name": "OwnershipTransferred",
      "type": "event"
    },
    {
      "inputs": [],
      "name": "REAL",
      "outputs": [
        {
          "internalType": "contract ERC20",
          "name": "",
          "type": "address"
        }
      ],
      "stateMutability": "view",
      "type": "function",
      "constant": true
    },
    {
      "inputs": [],
      "name": "REAL_PRICE",
      "outputs": [
        {
          "internalType": "uint256",
          "name": "",
          "type": "uint256"
        }
      ],
      "stateMutability": "view",
      "type": "function",
      "constant": true
    },
    {
      "inputs": [],
      "name": "TGE_CLIFF",
      "outputs": [
        {
          "internalType": "uint256",
          "name": "",
          "type": "uint256"
        }
      ],
      "stateMutability": "view",
      "type": "function",
      "constant": true
    },
    {
      "inputs": [],
      "name": "TGE_RELEASE",
      "outputs": [
        {
          "internalType": "uint256",
          "name": "",
          "type": "uint256"
        }
      ],
      "stateMutability": "view",
      "type": "function",
      "constant": true
    },
    {
      "inputs": [],
      "name": "TOTAL_ALLOCATION",
      "outputs": [
        {
          "internalType": "uint256",
          "name": "",
          "type": "uint256"
        }
      ],
      "stateMutability": "view",
      "type": "function",
      "constant": true
    },
    {
      "inputs": [],
      "name": "VESTING_DURATION",
      "outputs": [
        {
          "internalType": "uint256",
          "name": "",
          "type": "uint256"
        }
      ],
      "stateMutability": "view",
      "type": "function",
      "constant": true
    },
    {
      "inputs": [],
      "name": "endTime",
      "outputs": [
        {
          "internalType": "uint256",
          "name": "",
          "type": "uint256"
        }
      ],
      "stateMutability": "view",
      "type": "function",
      "constant": true
    },
    {
      "inputs": [],
      "name": "isInit",
      "outputs": [
        {
          "internalType": "bool",
          "name": "",
          "type": "bool"
        }
      ],
      "stateMutability": "view",
      "type": "function",
      "constant": true
    },
    {
      "inputs": [],
      "name": "owner",
      "outputs": [
        {
          "internalType": "address",
          "name": "",
          "type": "address"
        }
      ],
      "stateMutability": "view",
      "type": "function",
      "constant": true
    },
    {
      "inputs": [],
      "name": "renounceOwnership",
      "outputs": [],
      "stateMutability": "nonpayable",
      "type": "function"
    },
    {
      "inputs": [],
      "name": "stage",
      "outputs": [
        {
          "internalType": "uint8",
          "name": "",
          "type": "uint8"
        }
      ],
      "stateMutability": "view",
      "type": "function",
      "constant": true
    },
    {
      "inputs": [],
      "name": "startTime",
      "outputs": [
        {
          "internalType": "uint256",
          "name": "",
          "type": "uint256"
        }
      ],
      "stateMutability": "view",
      "type": "function",
      "constant": true
    },
    {
      "inputs": [
        {
          "internalType": "address",
          "name": "newOwner",
          "type": "address"
        }
      ],
      "name": "transferOwnership",
      "outputs": [],
      "stateMutability": "nonpayable",
      "type": "function"
    },
    {
      "inputs": [
        {
          "internalType": "contract ERC20",
          "name": "_real",
          "type": "address"
        }
      ],
      "name": "initial",
      "outputs": [],
      "stateMutability": "nonpayable",
      "type": "function"
    },
    {
      "inputs": [
        {
          "internalType": "uint256",
          "name": "_tge",
          "type": "uint256"
        }
      ],
      "name": "setTgeTime",
      "outputs": [],
      "stateMutability": "nonpayable",
      "type": "function"
    },
    {
      "inputs": [
        {
          "internalType": "address[]",
          "name": "_users",
          "type": "address[]"
        },
        {
          "internalType": "uint256[]",
          "name": "_balance",
          "type": "uint256[]"
        }
      ],
      "name": "setWhilelist",
      "outputs": [],
      "stateMutability": "nonpayable",
      "type": "function"
    },
    {
      "inputs": [],
      "name": "claim",
      "outputs": [],
      "stateMutability": "nonpayable",
      "type": "function"
    },
    {
      "inputs": [
        {
          "internalType": "address",
          "name": "_account",
          "type": "address"
        }
      ],
      "name": "canUnlockAmount",
      "outputs": [
        {
          "internalType": "uint256",
          "name": "",
          "type": "uint256"
        }
      ],
      "stateMutability": "view",
      "type": "function",
      "constant": true
    },
    {
      "inputs": [],
      "name": "releasedTimes",
      "outputs": [
        {
          "internalType": "uint256",
          "name": "",
          "type": "uint256"
        }
      ],
      "stateMutability": "view",
      "type": "function",
      "constant": true
    },
    {
      "inputs": [],
      "name": "info",
      "outputs": [
        {
          "internalType": "uint8",
          "name": "",
          "type": "uint8"
        },
        {
          "internalType": "uint256",
          "name": "",
          "type": "uint256"
        },
        {
          "internalType": "uint256",
          "name": "",
          "type": "uint256"
        }
      ],
      "stateMutability": "view",
      "type": "function",
      "constant": true
    },
    {
      "inputs": [
        {
          "internalType": "address",
          "name": "_user",
          "type": "address"
        }
      ],
      "name": "infoWallet",
      "outputs": [
        {
          "internalType": "uint256",
          "name": "",
          "type": "uint256"
        },
        {
          "internalType": "uint256",
          "name": "",
          "type": "uint256"
        },
        {
          "internalType": "uint256",
          "name": "",
          "type": "uint256"
        }
      ],
      "stateMutability": "view",
      "type": "function",
      "constant": true
    },
    {
      "inputs": [
        {
          "internalType": "address",
          "name": "_token",
          "type": "address"
        },
        {
          "internalType": "address",
          "name": "_to",
          "type": "address"
        },
        {
          "internalType": "uint256",
          "name": "_amount",
          "type": "uint256"
        }
      ],
      "name": "governanceRecoverUnsupported",
      "outputs": [],
      "stateMutability": "nonpayable",
      "type": "function"
    }
  ],
  "bytecode": "0x60806040526006600355624f1a006004556301da9c0060055566d529ae9e8600006006556a18d0bf423c03d8de00000060075534801561003e57600080fd5b5061004833610051565b600180556100a1565b600080546001600160a01b038381166001600160a01b0319831681178455604051919092169283917f8be0079c531659141344cd1fd0a4f28419497f9722a3daafe3b4186f6b6457e09190a35050565b611075806100b06000396000f3fe608060405234801561001057600080fd5b50600436106101425760003560e01c806378e97925116100b8578063be614b201161007c578063be614b2014610285578063c040e6b81461028e578063df095a42146102ad578063f15732b8146102b6578063f2fde38b146102ce578063f6383b2c146102e157610142565b806378e97925146102035780637e020aa91461020c5780638da5cb5b14610215578063a939e3001461023a578063b145a5b81461026857610142565b8063489c34031161010a578063489c3403146101bc5780634b3740e2146101cf5780634cfc4d30146101d75780634e71d92d146101e057806363132c6c146101e8578063715018a6146101fb57610142565b80630dac7bea14610147578063202b1760146101635780633197cbb614610176578063370158ea1461017f5780633c9dd1a3146101a7575b600080fd5b61015060075481565b6040519081526020015b60405180910390f35b610150610171366004610e52565b6102f4565b61015060095481565b600a546008546009546040805160ff909416845260208401929092529082015260600161015a565b6101ba6101b5366004610e52565b6103b9565b005b6101ba6101ca366004610f3e565b61046c565b6101506106ca565b61015060055481565b6101ba6106fa565b6101ba6101f6366004610eb5565b610983565b6101ba610b68565b61015060085481565b61015060045481565b6000546001600160a01b03165b6040516001600160a01b03909116815260200161015a565b61024d610248366004610e52565b610b9e565b6040805193845260208401929092529082015260600161015a565b6002546102759060ff1681565b604051901515815260200161015a565b61015060035481565b600a5461029b9060ff1681565b60405160ff909116815260200161015a565b61015060065481565b6002546102229061010090046001600160a01b031681565b6101ba6102dc366004610e52565b610c19565b6101ba6102ef366004610e75565b610cb4565b6000600854421015610308575060006103b4565b6009544210610347576001600160a01b0382166000908152600d6020908152604080832054600c909252909120546103409190610fe2565b90506103b4565b60006103516106ca565b905060006008546009546103659190610fe2565b6001600160a01b0385166000908152600d6020908152604080832054600c9092529091205491925090829061039b908590610fc3565b6103a59190610fa3565b6103af9190610fe2565b925050505b919050565b6000546001600160a01b031633146103ec5760405162461bcd60e51b81526004016103e390610f56565b60405180910390fd5b60025460ff161515600114156104335760405162461bcd60e51b815260206004820152600c60248201526b496e6974206265666f72652160a01b60448201526064016103e3565b60028054600a805460ff199081169091556001600160a01b0390931661010002610100600160a81b031990911617919091166001179055565b600a5460ff16156104b35760405162461bcd60e51b815260206004820152601160248201527043616e206e6f74207365747570206e6f7760781b60448201526064016103e3565b6000546001600160a01b031633146104dd5760405162461bcd60e51b81526004016103e390610f56565b6004546104ea9082610f8b565b60088190556005546104fb91610f8b565b600955600a805460ff1916600117905560005b600b548110156106c65760006064600354600c6000600b868154811061054457634e487b7160e01b600052603260045260246000fd5b60009182526020808320909101546001600160a01b031683528201929092526040019020546105739190610fc3565b61057d9190610fa3565b905080600c6000600b85815481106105a557634e487b7160e01b600052603260045260246000fd5b60009182526020808320909101546001600160a01b03168352820192909252604001812080549091906105d9908490610fe2565b92505081905550600260019054906101000a90046001600160a01b03166001600160a01b031663a9059cbb600b848154811061062557634e487b7160e01b600052603260045260246000fd5b60009182526020909120015460405160e083901b6001600160e01b03191681526001600160a01b03909116600482015260248101849052604401602060405180830381600087803b15801561067957600080fd5b505af115801561068d573d6000803e3d6000fd5b505050506040513d601f19601f820116820180604052508101906106b19190610f1e565b505080806106be90610ff9565b91505061050e565b5050565b6000806009544210156106dd57426106e1565b6009545b90506000600854826106f39190610fe2565b9250505090565b600a5460ff166001146107435760405162461bcd60e51b815260206004820152601160248201527043616e206e6f7420636c61696d206e6f7760781b60448201526064016103e3565b600260015414156107965760405162461bcd60e51b815260206004820152601f60248201527f5265656e7472616e637947756172643a207265656e7472616e742063616c6c0060448201526064016103e3565b600260015560085442116107db5760405162461bcd60e51b815260206004820152600c60248201526b1cdd1a5b1b081b1bd8dad95960a21b60448201526064016103e3565b336000908152600d6020908152604080832054600c90925290912054116108305760405162461bcd60e51b81526020600482015260096024820152681b9bc81b1bd8dad95960ba1b60448201526064016103e3565b600061083b33610171565b9050600081116108805760405162461bcd60e51b815260206004820152601060248201526f4e6f7468696e6720746f20636c61696d60801b60448201526064016103e3565b336000908152600d60205260408120805483929061089f908490610f8b565b909155505060025461010090046001600160a01b031663a9059cbb6108c13390565b6040516001600160e01b031960e084901b1681526001600160a01b03909116600482015260248101849052604401602060405180830381600087803b15801561090957600080fd5b505af115801561091d573d6000803e3d6000fd5b505050506040513d601f19601f820116820180604052508101906109419190610f1e565b506040805182815242602082015233917f34fcbac0073d7c3d388e51312faf357774904998eeb8fca628b9e6f65ee1cbf7910160405180910390a25060018055565b600a5460ff16156109ca5760405162461bcd60e51b815260206004820152601160248201527043616e206e6f74207365747570206e6f7760781b60448201526064016103e3565b6000546001600160a01b031633146109f45760405162461bcd60e51b81526004016103e390610f56565b828114610a335760405162461bcd60e51b815260206004820152600d60248201526c125b9d985b1a59081a5b9c1d5d609a1b60448201526064016103e3565b60005b83811015610b61576000600654848484818110610a6357634e487b7160e01b600052603260045260246000fd5b90506020020135610a749190610fa3565b905080600c6000888886818110610a9b57634e487b7160e01b600052603260045260246000fd5b9050602002016020810190610ab09190610e52565b6001600160a01b03166001600160a01b031681526020019081526020016000206000828254610adf9190610f8b565b90915550600b9050868684818110610b0757634e487b7160e01b600052603260045260246000fd5b9050602002016020810190610b1c9190610e52565b81546001810183556000928352602090922090910180546001600160a01b0319166001600160a01b039092169190911790555080610b5981610ff9565b915050610a36565b5050505050565b6000546001600160a01b03163314610b925760405162461bcd60e51b81526004016103e390610f56565b610b9c6000610db9565b565b600a546000908190819060ff16610bdd575050506001600160a01b0381166000908152600c6020908152604080832054600d9092528220549091610c12565b6001600160a01b0384166000908152600c6020908152604080832054600d90925290912054610c0b866102f4565b9250925092505b9193909250565b6000546001600160a01b03163314610c435760405162461bcd60e51b81526004016103e390610f56565b6001600160a01b038116610ca85760405162461bcd60e51b815260206004820152602660248201527f4f776e61626c653a206e6577206f776e657220697320746865207a65726f206160448201526564647265737360d01b60648201526084016103e3565b610cb181610db9565b50565b6000546001600160a01b03163314610cde5760405162461bcd60e51b81526004016103e390610f56565b6002546001600160a01b03848116610100909204161415610d315760405162461bcd60e51b815260206004820152600d60248201526c151bdad95b881a5b9d985b1a59609a1b60448201526064016103e3565b60405163a9059cbb60e01b81526001600160a01b0383811660048301526024820183905284169063a9059cbb90604401602060405180830381600087803b158015610d7b57600080fd5b505af1158015610d8f573d6000803e3d6000fd5b505050506040513d601f19601f82011682018060405250810190610db39190610f1e565b50505050565b600080546001600160a01b038381166001600160a01b0319831681178455604051919092169283917f8be0079c531659141344cd1fd0a4f28419497f9722a3daafe3b4186f6b6457e09190a35050565b60008083601f840112610e1a578182fd5b50813567ffffffffffffffff811115610e31578182fd5b6020830191508360208083028501011115610e4b57600080fd5b9250929050565b600060208284031215610e63578081fd5b8135610e6e8161102a565b9392505050565b600080600060608486031215610e89578182fd5b8335610e948161102a565b92506020840135610ea48161102a565b929592945050506040919091013590565b60008060008060408587031215610eca578081fd5b843567ffffffffffffffff80821115610ee1578283fd5b610eed88838901610e09565b90965094506020870135915080821115610f05578283fd5b50610f1287828801610e09565b95989497509550505050565b600060208284031215610f2f578081fd5b81518015158114610e6e578182fd5b600060208284031215610f4f578081fd5b5035919050565b6020808252818101527f4f776e61626c653a2063616c6c6572206973206e6f7420746865206f776e6572604082015260600190565b60008219821115610f9e57610f9e611014565b500190565b600082610fbe57634e487b7160e01b81526012600452602481fd5b500490565b6000816000190483118215151615610fdd57610fdd611014565b500290565b600082821015610ff457610ff4611014565b500390565b600060001982141561100d5761100d611014565b5060010190565b634e487b7160e01b600052601160045260246000fd5b6001600160a01b0381168114610cb157600080fdfea26469706673582212209028d20943fc9c62c90ab759335558ebb47614ef9545d99e1e615168cf24eb5b64736f6c63430008020033",
  "immutableReferences": {},
  "source": "// SPDX-License-Identifier: MIT\npragma solidity ^0.8.0;\n\nimport \"@openzeppelin/contracts/access/Ownable.sol\";\nimport \"@openzeppelin/contracts/security/ReentrancyGuard.sol\";\nimport \"@openzeppelin/contracts/utils/math/SafeMath.sol\";\nimport \"@openzeppelin/contracts/token/ERC20/ERC20.sol\";\n\ncontract REALPrivateSale is Ownable, ReentrancyGuard {\n  using SafeMath for uint256;\n\n  bool public isInit;\n\n  ERC20 public REAL;\n\n  uint256 public TGE_RELEASE = 6;\n  uint256 public TGE_CLIFF = 86400 * 30 * 2; // 2 months\n  uint256 public VESTING_DURATION = 86400 * 30 * 12; // 12 months\n  uint256 public REAL_PRICE = 60000000000000000; // 0.006 / REAL\n  uint256 public TOTAL_ALLOCATION = 30000000000000000000000000; // 30.000.000 token REAL\n\n  uint256 public startTime;\n  uint256 public endTime;\n\n  // address coldWallet;\n  uint8 public stage;\n\n  address[] private whilelists;\n  mapping(address => uint256) private locks; // REAL\n  mapping(address => uint256) private released; // REAL\n\n  event Claim(address indexed account, uint256 amount, uint256 time);\n\n  constructor() {}\n\n  modifier canClaim() {\n    require(stage == 1, \"Can not claim now\");\n    _;\n  }\n\n  modifier canSetup() {\n    require(stage == 0, \"Can not setup now\");\n    _;\n  }\n\n  function initial(ERC20 _real) external onlyOwner {\n    require(isInit != true, \"Init before!\");\n    REAL = ERC20(_real);\n    stage = 0;\n\n    isInit = true;\n  }\n\n  function setTgeTime(uint256 _tge) external canSetup onlyOwner {\n    startTime = _tge + TGE_CLIFF;\n    endTime = startTime + VESTING_DURATION;\n\n    stage = 1;\n\n    //transfer 6% for whilelists;\n    for (uint256 i = 0; i < whilelists.length; i++) {\n      uint256 realAmount = (locks[whilelists[i]] * TGE_RELEASE) / 100;\n      locks[whilelists[i]] -= realAmount;\n      REAL.transfer(whilelists[i], realAmount);\n    }\n  }\n\n  function setWhilelist(address[] calldata _users, uint256[] calldata _balance)\n    external\n    canSetup\n    onlyOwner\n  {\n    require(_users.length == _balance.length, \"Invalid input\");\n    for (uint256 i = 0; i < _users.length; i++) {\n      //calculate\n      uint256 realAmount = _balance[i] / REAL_PRICE;\n      // boughts[_users[i]] += _balance[i];\n      locks[_users[i]] += realAmount;\n      whilelists.push(_users[i]);\n    }\n  }\n\n  function claim() external canClaim nonReentrant {\n    require(block.timestamp > startTime, \"still locked\");\n    require(locks[_msgSender()] > released[_msgSender()], \"no locked\");\n\n    uint256 amount = canUnlockAmount(_msgSender());\n    require(amount > 0, \"Nothing to claim\");\n\n    released[_msgSender()] += amount;\n\n    REAL.transfer(_msgSender(), amount);\n\n    emit Claim(_msgSender(), amount, block.timestamp);\n  }\n\n  function canUnlockAmount(address _account) public view returns (uint256) {\n    if (block.timestamp < startTime) {\n      return 0;\n    } else if (block.timestamp >= endTime) {\n      return locks[_account] - released[_account];\n    } else {\n      uint256 releasedTime = releasedTimes();\n      uint256 totalVestingTime = endTime - startTime;\n      return\n        (((locks[_account]) * releasedTime) / totalVestingTime) -\n        released[_account];\n    }\n  }\n\n  function releasedTimes() public view returns (uint256) {\n    uint256 targetNow = (block.timestamp >= endTime)\n      ? endTime\n      : block.timestamp;\n    uint256 releasedTime = targetNow - startTime;\n    return releasedTime;\n  }\n\n  function info()\n    external\n    view\n    returns (\n      uint8,\n      uint256,\n      uint256\n    )\n  {\n    return (stage, startTime, endTime);\n  }\n\n  //For FE\n  function infoWallet(address _user)\n    external\n    view\n    returns (\n      uint256,\n      uint256,\n      uint256\n    )\n  {\n    if (stage == 0) return (locks[_user], released[_user], 0);\n    return (locks[_user], released[_user], canUnlockAmount(_user));\n  }\n\n  /* ========== EMERGENCY ========== */\n  function governanceRecoverUnsupported(\n    address _token,\n    address _to,\n    uint256 _amount\n  ) external onlyOwner {\n    require(_token != address(REAL), \"Token invalid\");\n    ERC20(_token).transfer(_to, _amount);\n  }\n}\n",
  "sourcePath": "/Users/imac/Project/RealRealm/realrealm-tokenomics/contracts/REALPrivateSale.sol",
  "compiler": {
    "name": "solc",
    "version": "0.8.2+commit.661d1103.Emscripten.clang"
  },
  "schemaVersion": "3.4.3",
  "updatedAt": "2021-10-18T13:56:19.303Z",
  "networkType": "ethereum",
  "devdoc": {
    "kind": "dev",
    "methods": {
      "owner()": {
        "details": "Returns the address of the current owner."
      },
      "renounceOwnership()": {
        "details": "Leaves the contract without owner. It will not be possible to call `onlyOwner` functions anymore. Can only be called by the current owner. NOTE: Renouncing ownership will leave the contract without an owner, thereby removing any functionality that is only available to the owner."
      },
      "transferOwnership(address)": {
        "details": "Transfers ownership of the contract to a new account (`newOwner`). Can only be called by the current owner."
      }
    },
    "version": 1
  },
  "userdoc": {
    "kind": "user",
    "methods": {},
    "version": 1
  }
}